:10000000D6EF0AF0ECCFFAFFED52EFCFE8FFF96E32
:100010001200040EEA6EC60EE96EEF500EE0050EF9
:10002000016E006A002EFED7012EFBD72E0E006E49
:10003000002EFED700D0EF2EF2D71200C69E9E965D
:10004000CBC4C9FF020EC6BE05D0C7B4FED7000E92
:10005000C5BC010E016E1200C580C5B0FED7780E7A
:100060000401CB6F0001EADF0401CB6B0001E6DF86
:10007000CAC4CBF4E3DFC584C5B4FED71200640E56
:100080000401C66F0001C5DFAE0E0401CA6F000196
:10009000E3DFD50E0401CA6F0001DEDF800E04012C
:1000A000CA6F0001D9DFA80E0401CA6F0001D4DFB6
:1000B0003F0E0401CA6F0001CFDFD30E0401CA6FE7
:1000C0000001CADF0401CA6B0001C6DF400E040153
:1000D000CA6F0001C1DFAD0E0401CA6F0001BCDFB1
:1000E0008B0E0401CA6F0001B7DFA10E0401CA6FB5
:1000F0000001B2DFC80E0401CA6F0001ADDFDA0EE5
:100100000401CA6F0001A8DF120E0401CA6F0001CA
:10011000A3DF810E0401CA6F00019EDFCF0E040130
:10012000CA6F000199DFD90E0401CA6F000194DF84
:10013000F10E0401CA6F00018FDFDB0E0401CA6FEC
:1001400000018ADF400E0401CA6F000185DFA40EA2
:100150000401CA6F000180DFA60E0401CA6F00010E
:100160007BDFAF0E0401CA6F000176DF4AEF01F0BA
:1001700005010B510D03F3CF01F0F4CF00F00E0396
:10018000F35000260C510D03F3500020026E0001C5
:1001900012000401C36BC351070821E3C46BC451AF
:1001A0007F081BE305010C6BC3C40BF50E6B800EBF
:1001B0000D6F0001DDDF01C0C5F40401C45101244D
:1001C000016E000E0220036E0150090FE96E000E51
:1001D0000320EA6EEF6AC42BE2D7C32BDCD7000101
:1001E000F3EF00F0D6D71200C580C5B0FED7780E69
:1001F0000401CB6F000122DF400E0401CB6F000130
:100200001DDFCAC4CBF41ADFC584C5B4FED73FEFE7
:1002100001F00401C76BC751070836E3B00EC725CC
:10022000C96FCA6F000118DF020E0401CA6F000116
:1002300013DF100E0401CA6F00010EDF0401C86B4A
:10024000C8517F081FE305010C6BC7C40BF50E6B8B
:10025000800E0D6F00018CDF01C0C9F40401C8518C
:100260000124016E000E0220036E0150090FE96E99
:10027000000E0320EA6EEFCFCAF40001B5D70401E7
:10028000C82BDED7C72BC7D7000148EF01F0C1D775
:100290001200F5D6A7DFFBDF67EF0BF0C150F00BC4
:1002A000C16E060E0F01386F000E3C6F396F3A6F4A
:1002B0003B6FC050C00B0709C06EC09EC280010ECC
:1002C000616EF19E9380000167EF01F0E7D769EF5F
:1002D0000BF00401C25302E1C35306E0C2C4E9FFBC
:1002E000C3C4EAFFC4C4EFFF000172EF0BF00401C6
:1002F000C25302E1C35313E0C2C4E9FFC3C4EAFF1F
:10030000EF6AC46BC45107080AE3010EC425C22575
:10031000E96E000EC321EA6EEF6AC42BF3D7000129
:100320007AEF0BF0050106517F0803E205D000B01B
:1003300003D007513F08D8A04BD00731096F0933CC
:1003400009331F0E09170751070B016E010E0A6FC3
:10035000015204E0D8900A37012EFCD708531DE063
:100360000C6B09C50BF50E6B800E0D6F000100DFE5
:1003700002C00CF501C00BF5050106510124016E08
:10038000000E0220036E0150090FE96E000E0320DB
:10039000EA6EEF500A11EF6E1BD00C6B09C50BF51E
:1003A0000E6B800E0D6F0001E3DE01C00BF5050141
:1003B00006510124016E000E0220036E0150090F48
:1003C000E96E000E0320EA6E0A51FF0AEF14EF6E89
:1003D000000112000501006B005110084CE3036A94
:1003E00000512B0FE96E040E0320EA6E0401FF5149
:1003F000EF5C3EE10501016B0151020837E3026B3E
:100400000251040831E30051030DF350056B046FF2
:10041000036A01510425016E0551032201503C0F6E
:10042000E96E040E0320EA6EEFCF00F00251016E78
:1004300004E0D8900032012EFCD70050010B036F6E
:1004400001510401FD250501046F02510401FE253F
:100450000501056F04C506F5076F03C508F5000122
:1004600061DF0501022BCCD7012BC6D704D00401D4
:100470000501002BB1D7000151EF02F00401FB6B25
:10048000FA51FB5D13E2FB51F825E96E000EF921EC
:10049000EA6EEFCFFFF4F7C4FEF4F6C4FDF40001FA
:1004A00099D7040E0401F627FB2BEAD700011200AE
:1004B0000401FE6BFC51FE5D2DE2FF6BFD51FF5D03
:1004C00027E2FE51FA25E96E000EFB21EA6EEFCF1E
:1004D00000F0FF51016E04E0D8900032012EFCD7ED
:1004E0000050010B0501006F0401FF51F8250501C3
:1004F000016F0401FE51F9250501026F01C506F5E2
:10050000076F00C508F500010DDF0401FF2BD6D7EA
:10051000FE2BD0D700011200F7C4F9F4F6C4F8F4AA
:10052000040E0401FB6F6F0EFA6F080EFC6FFD6F77
:100530000001BEDF1200F7C4F9F4F6C4F8F4040EAB
:100540000401FB6F7F0EFA6F080EFC6FFD6F000158
:10055000AFDF1200F7C4F9F4F6C4F8F4040E040196
:10056000FB6F770EFA6F080EFC6FFD6F0001A0DFC6
:100570001200080E0401C26F050EC36F240EC46F73
:100580003B0EC56F0A0EC66F200EC76F320EC86FC6
:10059000200EC96F5A0ECA6F200ECB6F730ECC6F30
:1005A000700ECD6F610ECE6F630ECF6F650ED06F84
:1005B000200ED16F690ED26F6E0ED36F760ED46F90
:1005C000610ED56F640ED66F650ED76F720ED86F41
:1005D000730ED96F200EDA6FDB6FDC6F700EDD6F7C
:1005E000690EDE6F630EDF6F200EE06F650EE16F48
:1005F000640EE26F690EE36F740EE46F690EE56FCF
:100600006F0EE66F6E0EE76F630EE86F6C0EE96FAC
:10061000690EEA6F630EEB6F6B0EEC6F200EED6FE1
:10062000740EEE6F6F0EEF6F200EF06F730EF16FA2
:10063000740EF26F610EF36F720EF46F740EF56F3D
:10064000C3C4F7F4C2C4F6F4040EF96FCC0EF86F0D
:100650001C0EFA6F000112DFC5C4F7F4C4C4F6F42F
:10066000040E0401F96FE80EF86F0E0EFA6F000128
:1006700005DFCBC4F7F4CAC4F6F44EDFC9C4F7F4FF
:10068000C8C4F6F458DFC7C4F7F4C6C4F6F462DF92
:1006900070EF03F09380000E81B0010E016E120026
:1006A000F9DF0401C39101B0C3810894C3A1088498
:1006B000089808A403D008B601D00888089A08B49E
:1006C00003D008A601D0088A089608B4088600015D
:1006D0001200000E08B8010E016E120083DD49D72A
:1006E000D6DDDEDFF6DF015207E07CDD640E0401BB
:1006F000C66F00018EDC06D0640E0401C66F0001D7
:1007000088DCEFD77CEF0BF0650E0401CA6F050E95
:10071000CB6FCC6F010ECD6FCE6BCF6F650ED06FF0
:10072000050ED16F190ED26F010ED36FD46BD56F3A
:10073000650ED66F1E0ED76F2D0ED86F010ED96FB6
:10074000DA6BDB6FDC6BDC51020838E3DC51060D41
:10075000F350036A870F016E040E032201C0DDF41B
:1007600003C0EAFFDC51060DF350036ACA0FE16EC5
:10077000040E0320E26E01C0E9FF060E016EE6CF13
:10078000EEFF012EFCD7DC51060DF350DE6BDD6F62
:10079000010EDD25016E000EDE21036E0150870F74
:1007A000E96E040E0320EA6EECCFF7F4ED52EFCFC2
:1007B000F6F40001CFDE0401DC2BC5D700011200E6
:1007C0000401FD510908D8A040D0FE6BFE5102087B
:1007D0003CE3FF6BFF51040836E3FD51030DF3507A
:1007E0000501026B016F036A0401FE510501012539
:1007F000016E0251032201500D0FE96E040E032019
:10080000EA6EEFCF00F00401FF51016E04E0D890D2
:100810000032012EFCD70050010B0501006F0401CE
:10082000FE51FB250501016F0401FF51FC25050167
:10083000026F01C506F5076F00C508F5000172DDFE
:100840000401FF2BC7D7FE2BC1D700011200040102
:10085000FC51016AFB5D03E2FBC400F00CD0006AAE
:10086000080EFD6FFB370036FC51005CD8B0006EFF
:100870000136FD2FF7D7000112000401F051640882
:10088000D8A070D0F051640824E1EFC4FCF4EEC4A9
:10089000FBF4010EFD6F000193DF040E0401EE2551
:1008A000F16FEFC4F2F4F2C4FCF4F1C4FBF4FD6B9D
:1008B000000186DF080E0401EE25F36FEFC4F4F4A7
:1008C000F4C4FCF4F3C4FBF4FD6B000179DF040114
:1008D00049D0F0C4FBF40A0EFC6F0001B8DF01C080
:1008E000F5F4F0C4FBF40A0E0401FC6F0001AFDF65
:1008F00000C0F6F40401F5530AE0EFC4FCF4EEC4C2
:10090000FBF4F5C4FDF400015BDF1DD00401F76BBF
:10091000F751020817E3F86BF851040811E3F75197
:10092000EE25FB6FF851EF25FC6FFBC406F5E8CF11
:1009300007F50501086B0001F5DC0401F82BECD785
:10094000F72BE6D70001040E0401EE25F96FEFC482
:10095000FAF4FAC4FCF4F9C4FBF4F6C4FDF40001A3
:100960002FDF040100011200700E0401C96FCA6B71
:10097000CAC4EFF4C9C4EEF4C8C4F0F400017DDFCA
:1009800012000401C26BC251050822E3C251030DDB
:10099000F350C46BC36FB00EC325E96E040EC421BF
:1009A000EA6EEC6AED52EF6AC251030DF350C46B6C
:1009B000C36F020EC325016E000EC421036E0150E9
:1009C000B00FE96E040E0320EA6EEF6AC22BDBD78C
:1009D000000194EF0BF00401C66BC65105083BE320
:1009E000C651030DF350C86BC76F020EC725016EC9
:1009F000000EC821036E0150B00FE96E040E0320F3
:100A0000EA6EEF5226E1C651030DF350C86BC76F73
:100A1000B00EC725E96E040EC821EA6EC5C4ECFF0E
:100A2000ED52C4C4EFFFC651030DF350C86BC76F3E
:100A3000020EC725016E000EC821036E0150B00FD3
:100A4000E96E040E0320EA6E010EEF6EC6C401F0DB
:100A500004D0C62BC2D7FF0E016E000112000401A4
:100A6000E46BE251E45D17E2E56BE351E55D11E211
:100A7000E551E025E66FE451E125E76FE6C406F5B0
:100A8000E8CF07F50501086B00014CDC0401E52BFC
:100A9000ECD7E42BE6D700011200080E016EC2501D
:100AA000830B0110C26E0D0E006E002EFED7C282A7
:100AB000C2B2FED7C4CF01F070EF05F0040E016E94
:100AC000C250830B0110C26E0D0E006E002EFED7B9
:100AD000C282C2B2FED7C4CF01F073EF05F0DDD7FA
:100AE00001C0C9F4EBD701C0CAF40401C9517708A9
:100AF0000EE3C7C4E9FFC8C4EAFFEF5208E0C7C469
:100B0000E9FFC8C4EAFF050EEF5CEF6E11D0C951D2
:100B100087080EE2C7C4E9FFC8C4EAFFEF507708B0
:100B200007E3C7C4E9FFC8C4EAFF050EEF24EF6E70
:100B3000CA51770813E3010EC725E96E000EC821DC
:100B4000EA6EEF5037080AE3010EC725E96E000E82
:100B5000C821EA6E050EEF24EF6E14D0CA51870843
:100B600011E2010EC725E96E000EC821EA6EEF52B0
:100B700009E0010EC725E96E000EC821EA6E050ED8
:100B8000EF5CEF6EC7C4E9FFC8C4EAFFC7C4E9FF62
:100B9000C8C4EAFFEF50780806E2C7C4E9FFC8C43A
:100BA000EAFF780EEF6E010EC725E96E000EC82130
:100BB000EA6E010EC725E96E000EC821EA6EEF50FD
:100BC000380808E2010EC725E96E000EC821EA6E5A
:100BD000380EEF6E00015EDD0401CB9101B0CB81D8
:100BE0000894CBA10884089808A403D008B601D0C3
:100BF0000888089A08B403D008A601D0088A089685
:100C000008B40886000172EF06F0000E08B4010E69
:100C1000016E0CEF06F0F9D7015224E0030E040137
:100C2000CA25E96E000ECB21EA6EEF52D8B402D08D
:100C3000000118D0030ECA25E96E000ECB21EA6E22
:100C4000010EEF6ECA25E96E000ECB21EA6E080E8A
:100C5000C85DEF6E020ECA25E96E000ECB21EA6E6A
:100C6000C9C4EFFF00017FEF06F0C8C4CAF4C7C4CF
:100C7000C9F4CAC4E1F4C9C4E0F4080E0401E26F87
:100C8000E36F0001ECDE0401C7514F0802E3500E90
:100C9000C76FC751640802E2640EC76FC8513208BB
:100CA00002E2320EC86FC8C4F7F4C7C4F6F40001FC
:100CB00033DC0401C7C401F0C8C402F0000184EFB2
:100CC00006F09BC4E1F49AC4E0F4080E0401E26F5C
:100CD000E36F0001C4DE040E0401C86F9A0EC76FF3
:100CE0000001FDD69BC4C9F49AC4C8F499C4C7F4E2
:100CF000040E0401CB6F9C0ECA6F00018CD79BC4FD
:100D0000C8F49AC4C7F4B1D702C09BF401C09AF4E6
:100D100012000401CA5309E1C7C400F0C8C401F0BD
:100D2000C9C402F0CAC403F035D0C9C4CCF4C8C4E5
:100D3000CBF40C0EC85FC851050814E3CCC4E1F431
:100D4000CBC4E0F4080EE26FE36F000188DE04011B
:100D5000CA6BC7C400F0C8C401F0C9C402F0CAC459
:100D600003F018D0CCC4E1F4CBC4E0F4080EE26F79
:100D7000E36F000174DEC9C4F7F4C8C4F6F49BEC59
:100D800002F0C7C400F0C8C401F0C9C402F0CAC46C
:100D900003F004010001DAEF06F004019F5313E0B1
:100DA0009FC4CAF49EC4C9F49DC4C8F49CC4C7F4CB
:100DB0000001AFD703C09FF402C09EF401C09DF4B0
:100DC00000C09CF4040100011200080E0401D425A7
:100DD000D05D0CE2080ED025D45D08E2080ED525C2
:100DE000D15D04E2080ED125D55D02E3000E01D0ED
:100DF000010E016E00015FEF07F00401C9C4E9FFB5
:100E0000CAC4EAFFEF5203E1CD51080803E2000E25
:100E1000016E22D0CE6BCD51CE5D17E2010ECE25F4
:100E2000C925016E000ECA21036ECE51CB25E96E95
:100E3000000ECC21EA6EEFCFD1F403C0EAFF01C06F
:100E4000E9FFD1C4EFFFCE2BE6D7C9C4E9FFCAC47E
:100E5000EAFF010EEF6E016E00018BEF07F0040157
:100E6000C76BC7510208D8A095D0C751060DF350E3
:100E7000036A870FE96E040E0320EA6EEE52EE520B
:100E8000EE52EE52ECCFD8F4ED52EFCFD7F4ED5254
:100E9000EFCFD6F4ED52EFCFD5F4ED52EFCFCAF449
:100EA000ED52EFCFD3F49FC4D2F49EC4D1F49DC4CD
:100EB000D0F49CC4CFF4CAC4D4F4000186D7015244
:100EC00066E004019F53D8A402D0000160D0C7514E
:100ED000060DF350CA6BC96F050EC925016E000ED1
:100EE000CA21036E0150870FE96E040E0320EA6EDB
:100EF000EF52D8A402D000014AD0010EC86F040EF0
:100F0000CA6FA70EC96F040ECC6FC80ECB6F010E4F
:100F1000CD6F000172D704019F6BC751060DF350CE
:100F2000CA6BC96F050EC925016E000ECA21036E7A
:100F30000150870FE96E040E0320EA6EEF6AC75175
:100F4000060DF350CA6BC96F010EC925016E000E64
:100F5000CA21036E0150870FE96E040E0320EA6E6A
:100F6000ECCFE1F4ED52EFCFE0F4080EE26FE36F67
:100F7000000175DD9EC4E1F49DC4E0F4080E040197
:100F8000E26FE36F00016BDD040104D00001040196
:100F9000C72B67D7000112000401C75302E1C853F1
:100FA00005E0C7C4E9FFC8C4EAFFEF2A0001ECEF7F
:100FB00007F047EC01F00401A62BA6C4FBF4A5C47E
:100FC000FCF4000144DC005207E1040E0401C86F88
:100FD000A40EC76F0001E0D712000401CA5305E157
:100FE000CB5303E1000E016E10D0CAC4E9FFCBC49D
:100FF000EAFFEF5208E0CAC4E9FFCBC4EAFFEF06FC
:10100000010E016E02D0000E016E000189EF08F0A2
:10101000DAC4DFF4D9C4DEF40401DC531EE00D0EA3
:10102000D927DC2D02D0010E01D0FF0EDB6FDC6B67
:10103000DFC4E1F4DEC4E0F4080EE26FE36F000108
:101040000EDDDAC4F7F4D9C4F6F4AAEC02F0D80E37
:10105000016E040E026E26D00401DB51050DF35023
:10106000DA27DA51020805E3020EDA6F010EDC6FAF
:1010700006D0DA51310803E2320EDA6FDC69DFC4E0
:10108000E1F4DEC4E0F4080EE26FE36F0001E7DC98
:10109000DAC4F7F4D9C4F6F4AAEC02F0D80E016E63
:1010A000040E026ECFEF08F00401C76BC86BC85185
:1010B000020816E3C851060DF350CB6BCA6F050E3C
:1010C000CA25016E000ECB21036E0150870FE96E19
:1010D000040E0320EA6EEF5201E0C72BC82BE7D7BE
:1010E000C7530CE1A2530AE1A551010801E2A5078B
:1010F000000184EC03F0010E0401A26FA25303E08F
:10110000C75301E0A26B040ECB6FA40ECA6F00019F
:1011100064D701526CE00401C96BC951020866E34F
:10112000C951060DF350CB6BCA6F050ECA25016E6F
:10113000000ECB21036E0150870FE96E040E0320D1
:10114000EA6EEF5251E0C951060DF350036A870F62
:10115000016E040E032201C0CAF403C0CBF4C951CE
:10116000060DF350036A870FE96E040E0320EA6E42
:10117000EE52EE52EE52EE52ECCFDDF4ED52EFCFE6
:10118000DCF4ED52EFCFDBF4ED52EFCFDAF4ED52B9
:10119000EFCFD9F4ED52EFCFD8F4000139D702C028
:1011A00003F001C0E1FF02C0E2FFCBC4EAFFCAC402
:1011B000E9FF060E016EE6CFEEFF012EFCD704011B
:1011C000C951060DF350CB6BCA6F010ECA27000E32
:1011D000CB23870ECA25E96E040ECB21EA6EEF50B1
:1011E0004A0802E2010EA36FC92B97D70001120033
:1011F0000401C8C4E9FFC9C4EAFFEF5203E0CC51BF
:10120000080803E2000E016E22D0CD6BCC51CD5DFB
:1012100017E2CD51CA25016E000ECB21036E010EDF
:10122000CD25C825E96E000EC921EA6EEFCFD0F4B6
:1012300003C0EAFF01C0E9FFD0C4EFFFCD2BE6D722
:10124000C8C4E9FFC9C4EAFFEF6A010E016E0001DC
:1012500048EF09F0700E0401C86FC96BC9C4E1F40E
:10126000C8C4E0F40B0EE26F050EE36F00012FEC33
:1012700005F056EF09F0040E0401C96FA70EC86F00
:10128000040ECB6FC70ECA6F010ECC6F0001B0D732
:10129000015206E00401C72D01D0A02B0001EBD7BD
:1012A0000401A151A05D09E00001D4D7A0C4C8F495
:1012B000B4EC04F0A0C4A1F4040100011200040184
:1012C000C26BC25105083EE3C251030DF350C46B1B
:1012D000C36F020EC325016E000EC421036E0150C0
:1012E000B00FE96E040E0320EA6EEF5229E0C251FE
:1012F000030DF350C46BC36FB00EC325E96E040E2B
:10130000C421EA6EECCFC6F4ED52EFCFC5F4C5535D
:1013100002E1C65315E0C251030DF350C46BC36F15
:10132000B00EC325016E040EC421036E01C0C5F4C6
:10133000C66FEA6E01C0E9FF000102EC00F0040193
:10134000C22BBFD70001E7EF0BF0C69CC586C5B620
:10135000FED700B0C59A00A0C58AC588C5B8FED71B
:10136000C9CF01F0D2EF09F0C580C5B0FED7A00EFD
:101370000401CB6F00011EEC00F00401CB6B0001F7
:101380001EEC00F00401CB6B00011EEC00F0C582E6
:10139000C5B2FED7A10E0401CB6F00011EEC00F018
:1013A000006AD3D701C0C4F4C584C5B4FED7040114
:1013B000C4C401F00001DEEF09F0D6D701C0C3F4C8
:1013C0000401C3C401F00001AEEF0AF0C580C5B04E
:1013D000FED7A00E0401CB6F00011EEC00F004014B
:1013E000CB6B00011EEC00F00401CB6B00011EEC86
:1013F00000F0C5C4CBF41EEC00F0C584C5B4FED724
:10140000050E0401C66F000109EC00F010EF0AF0B0
:101410000401C351C45D05E2C3C4C5F40001D6D7BD
:1014200004010001B5EF0AF02E0E0401C56F0A0E8B
:10143000C66FC76F140EC86F0A0EC96F1A0ECA6F37
:101440006E0ECB6F140ECC6F6E0ECD6F1A0ECE6F6C
:10145000200ECF6F360ED06F670ED16F610ED26F38
:101460006D0ED36F650ED46F200ED56F6F0ED66FD5
:10147000760ED76F650ED86F720ED96F680EDA6F61
:10148000730EDB6FDC6FDD6F630EDE6F6C0EDF6F74
:10149000690EE06F630EE16F6B0EE26F200EE36F7B
:1014A000740EE46F6F0EE56F200EE66F720EE76F3D
:1014B000650EE86F730EE96F740EEA6F610EEB6FE5
:1014C000720EEC6F740EED6FC6C4F7F4C5C4F6F47B
:1014D000040EF96FD10EF86F090EFA6F00013EECA1
:1014E00002F0C8C4F7F4C7C4F6F4040E0401F96F9F
:1014F000DA0EF86F020EFA6F00013EEC02F0CCC477
:10150000F7F4CBC4F6F4040E0401F96FDC0EF86FA7
:10151000020EFA6F00013EEC02F0D0C4F7F4CFC423
:10152000F6F4040E0401F96FDE0EF86F100EFA6F78
:1015300000013EEC02F0CAC4EFF4C9C4EEF4C4C426
:10154000F0F43DEC04F0CEC4EFF4CDC4EEF4C3C42B
:10155000F0F43DEC04F0BCEF0AF02FD701C0C2F468
:10156000A0C4C3F4C2C4C4F453D7C9EC00F0A0C4EF
:10157000C3F4C2C4C4F458D747EC01F050EC03F0F4
:1015800069EC03F0015209E0C9EC00F0640E0401BB
:10159000C66F000109EC00F007D0640E0401C66FAD
:1015A000000109EC00F0EAD7F1EF0BF0F86AD09EE9
:1015B000700ED36E9B9C9B9E94869488CB90CB920E
:1015C000CB96270EC86E280EC66EC78EC79C089491
:1015D00008960898089A5AD07A040D1F111F001F08
:1015E000001D151715151F07041F17151D1F151DA5
:1015F00001011F1F151F17151F616567686D6F7249
:1016000073747670636C696B6E641E051F1F15150D
:101610000E111D1F041F1F061F0E110E1F051A128B
:101620001509011F010718071F05020E11111F10D0
:1016300010001D001F041B1F011E1F110E708C8245
:101640008181828C7018244281425A24C300000098
:101650007E7E0000000404997050326205C00003D1
:1016600004A00000000204A200000104A300020480
:10167000A506000204A506001244B000054F38007C
:10168000030F77000000010FD3700000000EF86E0A
:10169000150EF76ED80EF66E0900F550006E000AB2
:1016A00013E00900F550016EE8BE05D03F0BEA6E6D
:1016B0000900F5CFE9FF01BC090001AC0900F5CF35
:1016C000EEFF004EE9D7F9D7F86A49EF01F066EF6F
:1016D00001F0040E0401C36FA40EC26FC46B0001BD
:1016E00069EF01F0040E0401C36FA70EC26F000181
:1016F00077EF01F06EEF03F00401A06BA16B020E17
:10170000A56FA66BA26BA36B500E9A6F320E9B6FE8
:101710009F6B0001C9EC00F084EC03F0A0C4C8F496
:10172000B4EC04F0C1EF04F00D0E036E9A0E040148
:10173000C26F03C0C3F403C0C5F4C46F0001EBEC77
:1017400004F00C0E036EC20E0401C26F03C0C3F49A
:1017500003C0C5F4C46F0001EBEC04F00E0E036E81
:101760005E0E0401C26F03C0C3F403C0C5F4C46FAE
:101770000001EBEC04F0100E036EA80E0401C26F22
:1017800003C0C3F403C0C5F4C46F0001EBEC04F064
:10179000120E036E760E0401C26F03C0C3F403C0C1
:1017A000C5F4C46F0001EBEC04F00F0E036EB20E33
:1017B0000401C26F03C0C3F403C0C5F4C46F0001C9
:1017C000EBEC04F00401A3530AE1000178D5640EA8
:1017D0000401C66F000109EC00F0F4D70401000118
:0617E000BCD688D703000F
:020000040030CA
:0E00000000E81E3C00BF81000FC00FE00F4063
:00000001FF
;PIC18F46K22
;CRC=6A0A  CREATED="11-Aug-25 13:41"
