:10000000EDEF09F0456E656D795B25755D20706FCC
:10001000733A20783D25752C20793D25750D0A0011
:10002000040EEA6EC00EE96EEF500EE0050E016E92
:10003000006A002EFED7012EFBD72E0E006E002E7A
:10004000FED700D0EF2EF2D71200C69E9E96C4C4F3
:10005000C9FF020EC6BE05D0C7B4FED7000EC5BC90
:10006000010E016E1200C580C5B0FED7780E0401E6
:10007000C46F0001EADF0401C46B0001E6DFC3C402
:10008000C4F4E3DFC584C5B4FED71200640E0401D6
:10009000C06F0001C5DFAE0E0401C36F0001E3DFD6
:1000A000D50E0401C36F0001DEDF800E0401C36FB3
:1000B0000001D9DFA80E0401C36F0001D4DF3F0E99
:1000C0000401C36F0001CFDFD30E0401C36F000131
:1000D000CADF0401C36B0001C6DF400E0401C36F19
:1000E0000001C1DFAD0E0401C36F0001BCDF8B0E48
:1000F0000401C36F0001B7DFA10E0401C36F00014B
:10010000B2DFC80E0401C36F0001ADDFDA0E0401D7
:10011000C36F0001A8DF120E0401C36F0001A3DF4B
:10012000810E0401C36F00019EDFCF0E0401C36F77
:10013000000199DFD90E0401C36F000194DFF10EB5
:100140000401C36F00018FDFDB0E0401C36F0001E8
:100150008ADF400E0401C36F000185DFA40E040195
:10016000C36F000180DFA60E0401C36F00017BDFB7
:10017000AF0E0401C36F000176DF4FEF01F0040101
:10018000F951FB03F3CF01F0F4CF00F0FC03F3507F
:100190000026FA51FB03F3500020026E000112000A
:1001A0000401B26BB251070820E3B36BB3517F086F
:1001B0001AE3FA6BB2C4F9F4FC6B800EFB6F00011A
:1001C000DEDF01C0B4F40401B3510124016E000E5E
:1001D0000220036E0150090FE96E000E0320EA6E43
:1001E000EF6AB32BE3D7B22BDDD70001F9EF00F0B4
:1001F000D7D71200C580C5B0FED7780E0401C46FF2
:10020000000123DF400E0401C46F00011EDFC3C4E0
:10021000C4F41BDFC584C5B4FED744EF01F004016C
:10022000C06BC051070835E3B00EC025C26FC36F65
:10023000000119DF020E0401C36F000114DF100E6C
:100240000401C36F00010FDF0401C16BC1517F08BE
:100250001EE3FA6BC0C4F9F4FC6B800EFB6F000167
:100260008EDF01C0C2F40401C1510124016E000EF1
:100270000220036E0150090FE96E000E0320EA6EA2
:10028000EFCFC3F40001B6D70401C12BDFD7C02BD9
:10029000C8D700014DEF01F0C2D71200F7D6A8DF92
:1002A000FBDF6AEF0AF0C150F00BC16E060E0F01C2
:1002B000386F000E3C6F396F3A6F3B6FC050C00B08
:1002C0000709C06EC09EC280010E616EF19E9380D0
:1002D00000016CEF01F0E7D76CEF0AF00401F45174
:1002E0007F0803E205D000B003D0F5513F08D8A045
:1002F0004BD0F531F76FF733F7331F0EF717F55182
:10030000070B016E010EF86F015204E0D890F83728
:10031000012EFCD7F6531DE0FA6BF7C4F9F4FC6B21
:10032000800EFB6F00012BDF02C0FAF401C0F9F46C
:100330000401F4510124016E000E0220036E0150ED
:10034000090FE96E000E0320EA6EEF50F811EF6E10
:100350001BD0FA6BF7C4F9F4FC6B800EFB6F000145
:100360000EDF01C0F9F40401F4510124016E000E06
:100370000220036E0150090FE96E000E0320EA6EA1
:10038000F851FF0AEF14EF6E000112000401E86B50
:10039000E851100844E3036AE8512B0FE96E040E9C
:1003A0000320EA6EE751EF5C38E1E96BE95102089E
:1003B00033E3EA6BEA5104082DE3E851030DF350EF
:1003C000ED6BEC6F036AE951EC25016EED510322F0
:1003D00001503C0FE96E040E0320EA6EEFCF00F0EF
:1003E000EA51016E04E0D8900032012EFCD7005093
:1003F000010BEB6FE951E525EC6FEA51E625ED6F56
:10040000ECC4F4F4F56FEBC4F6F4000167DF04010B
:10041000EA2BD0D7E92BCAD702D0E82BB9D70001F5
:1004200025EF02F00401E36BE251E35D13E2E351D7
:10043000E025E96E000EE121EA6EEFCFE7F4DFC4BC
:10044000E6F4DEC4E5F40001A1D7040E0401DE27C2
:10045000E32BEAD700011200080E0401B06F050E6D
:10046000B16F240EB26F3B0EB36F730EB46F700E8C
:10047000B56F610EB66F630EB76F650EB86F200E65
:10048000B96F690EBA6F6E0EBB6F760EBC6F610EE0
:10049000BD6F640EBE6F650EBF6F720EC06F730EC0
:1004A000C16F200EC26FC36FC46F700EC56F690E2F
:1004B000C66F630EC76F200EC86F650EC96F640EDE
:1004C000CA6F690ECB6F740ECC6F690ECD6F6F0E55
:1004D000CE6F6E0ECF6F630ED06F6C0ED16F690E44
:1004E000D26F630ED36F6B0ED46F200ED56F740E68
:1004F000D66F6F0ED76F200ED86F730ED96F740E34
:10050000DA6F610EDB6F720EDC6F740EDD6FB1C4DB
:10051000DFF4B0C4DEF4040EE16FB40EE06F1C0E25
:10052000E26F00017FDFB3C4DFF4B2C4DEF4040E77
:100530000401E16FD00EE06F0E0EE26F000172DF7A
:10054000C8EF02F09380000E81B0010E016E120020
:10055000F9DF0401B29101B0B2810894B2A108841C
:10056000089808A403D008B601D00888089A08B4EF
:1005700003D008A601D0088A089608B408860001AE
:100580001200000E08B8010E016E120031DE64D7B1
:1005900083DEDEDFF6DF015207E02ADE640E0401AF
:1005A000C06F00013DDD06D0640E0401C06F000184
:1005B00037DDEFD76EEF0AF00401EF6BED51EF5D21
:1005C00028E2F06BEE51F05D22E2EF51EB25E96E8F
:1005D000000EEC21EA6EEFCF00F0F051016E04E066
:1005E000D8900032012EFCD70050010BF16FF05172
:1005F000E925F26FEF51EA25F36FF2C4F4F4F56FD9
:10060000F1C4F6F400016ADE0401F02BDBD7EF2B16
:10061000D5D700011200E8C4EAF4E7C4E9F4040EF7
:100620000401EC6F770EEB6F080EED6FEE6F0001BB
:10063000C3DF1200650E0401C06F050EC16FC26FEB
:10064000010EC36FC46BC56F650EC66F050EC76F15
:10065000190EC86F010EC96FCA6BCB6F650ECC6FD8
:10066000050ECD6F2D0ECE6F010ECF6FD06BD16FFB
:10067000650ED26F1E0ED36F050ED46F010ED56FAF
:10068000D66BD76F650ED86F1E0ED96F190EDA6F45
:10069000010EDB6FDC6BDD6F650EDE6F1E0EDF6F34
:1006A0002D0EE06F010EE16FE26BE36FE46BE4513E
:1006B000050838E3E451060DF350036A8B0F016E11
:1006C000040E032201C0E5F403C0EAFFE451060D65
:1006D000F350036AC00FE16E040E0320E26E01C006
:1006E000E9FF060E016EE6CFEEFF012EFCD7E451C6
:1006F000060DF350E66BE56F010EE525016E000E69
:10070000E621036E01508B0FE96E040E0320EA6EA2
:10071000ECCFE8F4ED52EFCFE7F400017CDF040109
:10072000E42BC5D7000112000401EC510908D8A040
:1007300037D0ED6BED51020833E3EE6BEE51040858
:100740002DE3EC51030DF350F16BF06F036AED51A3
:10075000F025016EF151032201500D0FE96E040ED8
:100760000320EA6EEFCF00F0EE51016E04E0D89066
:100770000032012EFCD70050010BEF6FED51EA253E
:10078000F06FEE51EB25F16FF0C4F4F4F56FEFC4A8
:10079000F6F40001A3DD0401EE2BD0D7ED2BCAD770
:1007A000000112000401EB51016AEA5D03E2EAC4B0
:1007B00000F00CD0006A080EEC6FEA370036EB51FF
:1007C000005CD8B0006E0136EC2FF7D700011200A4
:1007D0000401DF516408D8A06ED0DF51640824E121
:1007E000DEC4EBF4DDC4EAF4010EEC6F00019CDF23
:1007F000040E0401DD25E06FDEC4E1F4E1C4EBF496
:10080000E0C4EAF4EC6B00018FDF080E0401DD2583
:10081000E26FDEC4E3F4E3C4EBF4E2C4EAF4EC6BAD
:10082000000182DF040147D0DFC4EAF40A0EEB6F57
:100830000001B8DF01C0E4F4DFC4EAF40A0E0401E9
:10084000EB6F0001AFDF00C0E5F40401E4530AE000
:10085000DEC4EBF4DDC4EAF4E4C4ECF4000164DFCC
:100860001BD00401E66BE651020815E3E76BE75184
:1008700004080FE3E651DD25EA6FE751DE25EB6F53
:10088000EAC4F4F4F56FF66B000128DD0401E72BF0
:10089000EED7E62BE8D70001040E0401DD25E86F52
:1008A000DEC4E9F4E9C4EBF4E8C4EAF4E5C4ECF42A
:1008B00000013ADF040100011200700E0401C16F53
:1008C000C26BC2C4DEF4C1C4DDF4C0C4DFF40001F5
:1008D0007FDF12000401DA6BD851DA5D15E2DB6BC1
:1008E000D951DB5D0FE2DB51D625DC6FDA51D7251C
:1008F000DD6FDCC4F4F4F56FF66B0001EFDC04018E
:10090000DB2BEED7DA2BE8D700011200080E016EC0
:10091000C250830B0110C26E0D0E006E002EFED76A
:10092000C282C2B2FED7C4CF01F0A9EF04F0040E18
:10093000016EC250830B0110C26E0D0E006E002EB0
:10094000FED7C282C2B2FED7C4CF01F0ACEF04F032
:10095000DDD701C0C2F4EBD701C0C3F40401C2511A
:1009600077080EE3C0C4E9FFC1C4EAFFEF5208E014
:10097000C0C4E9FFC1C4EAFF050EEF5CEF6E11D001
:10098000C25187080EE2C0C4E9FFC1C4EAFFEF50BC
:10099000770807E3C0C4E9FFC1C4EAFF050EEF24EE
:1009A000EF6EC351770813E3010EC025E96E000E08
:1009B000C121EA6EEF5037080AE3010EC025E96E47
:1009C000000EC121EA6E050EEF24EF6E14D0C35164
:1009D000870811E2010EC025E96E000EC121EA6E02
:1009E000EF5209E0010EC025E96E000EC121EA6E4A
:1009F000050EEF5CEF6EC0C4E9FFC1C4EAFFC0C4DE
:100A0000E9FFC1C4EAFFEF50780806E2C0C4E9FF7D
:100A1000C1C4EAFF780EEF6E010EC025E96E000E2C
:100A2000C121EA6E010EC025E96E000EC121EA6EF9
:100A3000EF50380808E2010EC025E96E000EC12112
:100A4000EA6E380EEF6E00017DDD0401C49101B045
:100A5000C4810894C4A10884089808A403D008B6E7
:100A600001D00888089A08B403D008A601D0088AE3
:100A7000089608B408860001E0EF06F0000E08B4FE
:100A8000010E016E45EF05F0F9D7015224E0030E87
:100A90000401C325E96E000EC421EA6EEF52D8B4FA
:100AA00002D0000118D0030EC325E96E000EC42148
:100AB000EA6E010EEF6EC325E96E000EC421EA6EE8
:100AC000030EC125EF6E020EC325E96E000EC42190
:100AD000EA6EC2C4EFFF0001EDEF06F0C7C4EAF40E
:100AE000C6C4E9F4040E0401EC6F7F0EEB6F080E30
:100AF000ED6FEE6F000160DDAAEF05F0C2C4C5F432
:100B0000C1C4C4F40C0E0401C15FC151040814E354
:100B1000C5C4D7F4C4C4D6F4080ED86FD96F000189
:100B2000D9DE0401C36BC0C400F0C1C401F0C2C46B
:100B300002F0C3C403F017D0C5C4D7F4C4C4D6F4BC
:100B4000080ED86FD96F0001C5DEC2C4C7F4C1C496
:100B5000C6F4C4D7C0C400F0C1C401F0C2C402F0DE
:100B6000C3C403F004010001FAEF06F0080E04010B
:100B7000CB25C75D0CE2080EC725CB5D08E2080E49
:100B8000CC25C85D04E2080EC825CC5D02E3000E4A
:100B900001D0010E016E000132EF07F0D0C4D5F490
:100BA000CFC4D4F40401D2531DE00F0ECF27D22DB1
:100BB00002D0010E01D0FF0ED16FD26BD5C4D7F495
:100BC000D4C4D6F4080ED86FD96F000183DED0C428
:100BD000E8F4CFC4E7F41FDDCE0E016E040E026E02
:100BE00025D00401D151050DF350D027D051020872
:100BF00005E3020ED06F010ED26F06D0D05131083E
:100C000003E2320ED06FD269D5C4D7F4D4C4D6F47F
:100C1000080ED86FD96F00015DDED0C4E8F4CFC4F0
:100C2000E7F4F9DCCE0E016E040E026E0CEF08F054
:100C30000900F6CFC5F4F7CFC6F4F5509EA8FED74D
:100C4000AD6EC5C4F6FFC6C4F7FF0401C42F01D0C2
:100C500002D00001EDD7000112000150C4C4EAF433
:100C6000640E0401EB6F00019DDD00C0C4F401506F
:100C7000300E08E10401C5A30ED0C5B70CD0C5B92C
:100C8000200E04D00401C597C599C58101260150E5
:100C90009EA8FED7AD6EC4C4EAF40A0EEB6F000145
:100CA00081DD00C0C4F40150300E08E10401C5B775
:100CB0000BD0C5A109D0C5B9200E000101260150F5
:100CC0009EA8FED7AD6E0401300EC427C4519EA865
:100CD000FED7AD6E00011200C5C4EAF4C4C4E9F445
:100CE000040E0401EC6F6F0EEB6F080EED6FEE6FEC
:100CF000000162DCA0EF06F0C1C4C3F4C0C4C2F4BA
:100D0000C3C4D7F4C2C4D6F4080E0401D86FD96F97
:100D10000001E0DD0401C051450802E3460EC06F4A
:100D2000C0516E0802E26E0EC06FC151320802E27D
:100D3000320EC16FC1C4C5F4C0C4C4F40001CCD725
:100D40000401C0C401F0C1C402F000019AEF08F030
:100D5000700E0401C06FC16BC1C4D7F4C0C4D6F417
:100D60000B0ED86F050ED96F0001B4DDA4EF08F0AB
:100D7000700E0401B06F500EB16F320EB26F620E82
:100D8000B36FB46BB56BB66BB76B020EB86FB96B64
:100D9000BA6BBB6B00014EDCB9C4C0F48EDDB2C4CB
:100DA000D7F4B1C4D6F4080E0401D86FD96F00018E
:100DB00091DD040E0401C16FB10EC06F0001C8D5F2
:100DC000B2C4C2F4B1C4C1F4B0C4C0F4040E04018E
:100DD000C46FB30EC36F000157D60401B65313E0BE
:100DE000B6C4C3F4B5C4C2F4B4C4C1F4B3C4C0F44B
:100DF000000184D603C0B6F402C0B5F401C0B4F457
:100E000000C0B3F40401BC6BBC510508D8A087D066
:100E1000BC51060DF350036A8B0FE96E040E0320DC
:100E2000EA6EEE52EE52EE52EE52ECCFCFF4ED52AD
:100E3000EFCFCEF4ED52EFCFCDF4ED52EFCFCCF4B7
:100E4000ED52EFCFC1F4ED52EFCFCAF4B6C4C9F4FE
:100E5000B5C4C8F4B4C4C7F4B3C4C6F4C1C4CBF4B5
:100E6000000184D6015258E00401B653D8A402D040
:100E7000000152D0BC51060DF350C16BC06F050E7E
:100E8000C025016E000EC121036E01508B0FE96E6B
:100E9000040E0320EA6EEF52D8A402D000013CD029
:100EA000B66BBC51060DF350C16BC06F050EC0256B
:100EB000016E000EC121036E01508B0FE96E040E0E
:100EC0000320EA6EEF6ABC51060DF350C16BC06F90
:100ED000010EC025016E000EC121036E01508B0F63
:100EE000E96E040E0320EA6EECCFD7F4ED52EFCF9B
:100EF000D6F4080ED86FD96F0001ECDCB5C4D7F476
:100F0000B4C4D6F4080E0401D86FD96F0001E2DC36
:100F10000401B92B04D000010401BC2B75D7BD6BB3
:100F2000BE6BBE51050816E3BE51060DF350C16BF2
:100F3000C06F050EC025016E000EC121036E015069
:100F40008B0FE96E040E0320EA6EEF5201E0BD2B19
:100F5000BE2BE7D7BD530CE1BB530AE1B8510108E2
:100F600001E2B80700011AEC03F0010E0401BB6FA7
:100F7000BB5303E0BD5301E0BB6BB7C4EAF4B8C494
:100F8000EBF400010FDC0052D8A4CFD00401BF6BFA
:100F9000BF510508D8A0C8D0BF51060DF350C16B92
:100FA000C06F050EC025016E000EC121036E0150F9
:100FB0008B0FE96E040E0320EA6EEF52D8B4B2D064
:100FC000BF51060DF350036A8B0F016E040E03220E
:100FD00001C0C0F403C0C1F4BF51060DF350036A51
:100FE0008B0FE96E040E0320EA6EEE52EE52EE52C3
:100FF000EE52ECCFD3F4ED52EFCFD2F4ED52EFCF6F
:10100000D1F4ED52EFCFD0F4ED52EFCFCFF4ED525B
:10101000EFCFCEF40001C2D502C003F001C0E1FF62
:1010200002C0E2FFC1C4EAFFC0C4E9FF060E016EC0
:10103000E6CFEEFF012EFCD70401BF51060DF350A1
:10104000C16BC06F010EC027000EC1238B0EC025DF
:10105000E96E040EC121EA6EEF504F0863E2BF5102
:10106000060DF350C16BC06F010EC027000EC123E7
:101070008B0EC025E96E040EC121EA6EEFCFC2F4DB
:10108000BF51060DF350C46BC36F010EC327000E92
:10109000C423010EC325016E000EC421036E01504E
:1010A0008B0FE96E040E0320EA6EEFCFC3F4040E3B
:1010B000F66E000EF76E060EC46F0001B9DDBFC4F8
:1010C000C4F41B0E0401C56F0001C7DD0C0EF66EE3
:1010D000000EF76E090E0401C46F0001A9DDC2C441
:1010E000C4F41B0E0401C56F0001B7DD170EF66EC8
:1010F000000EF76E040E0401C46F000199DDC3C435
:10110000C4F41B0E0401C56F0001A7DD0D0E9EA8DF
:10111000FED7AD6E0A0E9EA8FED7AD6E0401B9C40F
:1011200001F027D0BF2B34D70001B2C4C1F4B1C441
:10113000C0F4E2D502C0B2F401C0B1F40401BA5166
:10114000B95D09E0000104D6B9C4C0F45DEC04F057
:10115000B9C4BAF4040100014CEC01F0640E0401BE
:10116000C06F000110EC00F00401B72B000117D68E
:10117000040100016FEF0AF0C69CC586C5B6FED714
:1011800000B0C59A00A0C58AC588C5B8FED7C9CF2A
:1011900001F0E9EF08F0C580C5B0FED7A00E04014C
:1011A000C46F000125EC00F00401C46B000125ECC4
:1011B00000F00401C46B000125EC00F0C582C5B24B
:1011C000FED7A10E0401C46F000125EC00F0006AF7
:1011D000D3D701C0B3F4C584C5B4FED70401B3C4EA
:1011E00001F00001F5EF08F0D6D701C0B2F4040118
:1011F000B2C401F00001C5EF09F0C580C5B0FED74B
:10120000A00E0401C46F000125EC00F00401C46BC2
:10121000000125EC00F00401C46B000125EC00F096
:10122000B4C4C4F425EC00F0C584C5B4FED7050EE3
:101230000401C06F000110EC00F027EF09F0040179
:10124000B251B35D05E2B2C4B4F40001D6D70401D3
:101250000001CCEF09F02E0E0401B46F0A0EB56F39
:10126000B66F140EB76F0A0EB86F1A0EB96F6E0E06
:10127000BA6F140EBB6F6E0EBC6F1A0EBD6F200ED0
:10128000BE6F360EBF6F670EC06F610EC16F6D0E01
:10129000C26F650EC36F200EC46F6F0EC56F760EE2
:1012A000C66F650EC76F720EC86F680EC96F730E7A
:1012B000CA6FCB6FCC6F630ECD6F6C0ECE6F690EA5
:1012C000CF6F630ED06F6B0ED16F200ED26F740E86
:1012D000D36F6F0ED46F200ED56F720ED66F650E62
:1012E000D76F730ED86F740ED96F610EDA6F720EEE
:1012F000DB6F740EDC6FB5C4DFF4B4C4DEF4040E2F
:10130000E16FC00EE06F090EE26F000112EC02F017
:10131000B7C4DFF4B6C4DEF4040E0401E16FC90EF5
:10132000E06F020EE26F000112EC02F0BBC4DFF4CA
:10133000BAC4DEF4040E0401E16FCB0EE06F020EBE
:10134000E26F000112EC02F0BFC4DFF4BEC4DEF4B1
:10135000040E0401E16FCD0EE06F100EE26F00018C
:1013600012EC02F0B9C4DEF4B8C4DDF4B3C4DFF4A7
:10137000E8EC03F0BDC4DEF4BCC4DDF4B2C4DFF4B9
:10138000E8EC03F0D3EF09F02FD701C0B1F4B0C4FB
:10139000B2F4B1C4B3F453D7D0EC00F0B0C4B2F49B
:1013A000B1C4B3F458D74CEC01F0A8EC02F0C1EC96
:1013B00002F0015209E0D0EC00F0640E0401C06FAD
:1013C000000110EC00F007D0640E0401C06F0001B2
:1013D00010EC00F0EAD774EF0AF0F86AD09E700EB5
:1013E000D36E9B9C9B9E94869488CB90CB92CB96FD
:1013F000270EC86E280EC66EC78EC79C0894089626
:101400000898089A46D07A040D1F111F001F001D6E
:10141000151715151F07041F17151D1F151D010191
:101420001F1F151F17151F616567686D6F72737435
:101430007670636C696B6E641E051F1F15150E11A7
:101440001D1F041F1F061F0E110E1F051A1215095E
:10145000011F010718071F05020E11111F101000B0
:101460001D001F041B1F011E1F110E708C82818125
:10147000828C7018244281425A24C30000007E7E70
:10148000000000054F3800030F77000000010FD364
:101490007000000EF86E140EF76E060EF66E090060
:1014A000F550006E000A13E00900F550016EE8BE29
:1014B00005D03F0BEA6E0900F5CFE9FF01BC09003A
:1014C00001AC0900F5CFEEFF004EE9D7F9D7F86A75
:1014D0004EEF01F06BEF01F0C6EF02F049D401C00E
:0C14E000AFF4AFC4B0F450D7F7D703004E
:020000040030CA
:0E00000000E81E3C00BF81000FC00FE00F4063
:00000001FF
;PIC18F46K22
;CRC=CFDF  CREATED="09-Aug-25 18:55"
