:10000000DFEF0AF0ECCFFAFFED52EFCFE8FFF96E29
:100010001200040EEA6EC80EE96EEF500EE0050EF7
:10002000016E006A002EFED7012EFBD72E0E006E49
:10003000002EFED700D0EF2EF2D71200C69E9E965D
:10004000CDC4C9FF020EC6BE05D0C7B4FED7000E90
:10005000C5BC010E016E1200C580C5B0FED7780E7A
:100060000401CD6F0001EADF0401CD6B0001E6DF82
:10007000CCC4CDF4E3DFC584C5B4FED71200640E52
:100080000401C86F0001C5DFAE0E0401CC6F000192
:10009000E3DFD50E0401CC6F0001DEDF800E04012A
:1000A000CC6F0001D9DFA80E0401CC6F0001D4DFB2
:1000B0003F0E0401CC6F0001CFDFD30E0401CC6FE3
:1000C0000001CADF0401CC6B0001C6DF400E040151
:1000D000CC6F0001C1DFAD0E0401CC6F0001BCDFAD
:1000E0008B0E0401CC6F0001B7DFA10E0401CC6FB1
:1000F0000001B2DFC80E0401CC6F0001ADDFDA0EE3
:100100000401CC6F0001A8DF120E0401CC6F0001C6
:10011000A3DF810E0401CC6F00019EDFCF0E04012E
:10012000CC6F000199DFD90E0401CC6F000194DF80
:10013000F10E0401CC6F00018FDFDB0E0401CC6FE8
:1001400000018ADF400E0401CC6F000185DFA40EA0
:100150000401CC6F000180DFA60E0401CC6F00010A
:100160007BDFAF0E0401CC6F000176DF4AEF01F0B8
:1001700005010E511003F3CF01F0F4CF00F011038D
:10018000F35000260F511003F3500020026E0001BF
:1001900012000401C56BC551070821E3C66BC651A7
:1001A0007F081BE305010F6BC5C40EF5116B800EB4
:1001B000106F0001DDDF01C0C7F40401C651012446
:1001C000016E000E0220036E0150040FE96E000E56
:1001D0000320EA6EEF6AC62BE2D7C52BDCD70001FD
:1001E000F3EF00F0D6D71200C580C5B0FED7780E69
:1001F0000401CD6F000122DF400E0401CD6F00012C
:100200001DDFCCC4CDF41ADFC584C5B4FED73FEFE3
:1002100001F00401C96BC951070836E3B00EC925C6
:10022000CB6FCC6F000118DF020E0401CC6F000110
:1002300013DF100E0401CC6F00010EDF0401CA6B46
:10024000CA517F081FE305010F6BC9C40EF5116B7E
:10025000800E106F00018CDF01C0CBF40401CA5185
:100260000124016E000E0220036E0150040FE96E9E
:10027000000E0320EA6EEFCFCCF40001B5D70401E5
:10028000CA2BDED7C92BC7D7000148EF01F0C1D771
:100290001200F5D6A7DFFBDF71EF0BF0C150F00BBA
:1002A000C16E060E0F01386F000E3C6F396F3A6F4A
:1002B0003B6FC050C00B0709C06EC09EC280010ECC
:1002C000616EF19E9380000167EF01F0E7D773EF55
:1002D0000BF00401C45302E1C55306E0C4C4E9FFB6
:1002E000C5C4EAFFC6C4EFFF00017CEF0BF00401B8
:1002F000C45302E1C55313E0C4C4E9FFC5C4EAFF17
:10030000EF6AC66BC65107080AE3010EC625C4256D
:10031000E96E000EC521EA6EEF6AC62BF3D7000125
:1003200084EF0BF0050109517F0803E205D000B00E
:1003300003D00A513F08D8A04BD00A310C6F0C33C0
:100340000C331F0E0C170A51070B016E010E0D6FB7
:10035000015204E0D8900D37012EFCD70B531DE05D
:100360000F6B0CC50EF5116B800E106F000100DFD6
:1003700002C00FF501C00EF5050109510124016EFF
:10038000000E0220036E0150040FE96E000E0320E0
:10039000EA6EEF500D11EF6E1BD00F6B0CC50EF512
:1003A000116B800E106F0001E3DE01C00EF5050138
:1003B00009510124016E000E0220036E0150040F4A
:1003C000E96E000E0320EA6E0D51FF0AEF14EF6E86
:1003D000000112000501026B0251100846E3036A96
:1003E0000251230FE96E040E0320EA6E0151EF5C07
:1003F0003AE1036B0351020835E3046B045104082E
:100400002FE30251030DF350076B066F036A03518C
:100410000625016E075103220150340FE96E040EC8
:100420000320EA6EEFCF00F00451016E04E0D89093
:100430000032012EFCD70050010B056F035104015F
:10044000FF250501066F04510025076F06C509F554
:100450000A6F05C50BF5000165DF0501042BCED73A
:10046000032BC8D702D0022BB7D700014BEF02F005
:100470000401FD6BFC51FD5D13E2FD51FA25E96EAF
:10048000000EFB21EA6EEFCF01F5F9C400F5F8C4C8
:10049000FFF400019FD7040E0401F827FD2BEAD7D3
:1004A000000112000501006B0401FE510501005D11
:1004B00030E2016B0401FF510501015D28E20051AA
:1004C0000401FC25E96E000EFD21EA6EEFCF00F07D
:1004D00005010151016E04E0D8900032012EFCD7D5
:1004E0000050010B026F01510401FA250501036F51
:1004F00000510401FB250501046F03C509F50A6FCE
:1005000002C50BF500010EDF0501012BD3D7002B2F
:10051000CBD700011200F9C4FBF4F8C4FAF4040EBE
:100520000401FD6F670EFC6F080EFE6FFF6F000188
:10053000B9DF1200F9C4FBF4F8C4FAF4040E0401A4
:10054000FD6F770EFC6F080EFE6FFF6F0001AADFD4
:100550001200F9C4FBF4F8C4FAF4040E0401FD6FB0
:100560006F0EFC6F080EFE6FFF6F00019BDF120025
:10057000080E0401C46F050EC56F240EC66F3B0E36
:10058000C76F0A0EC86F200EC96F320ECA6F200ED9
:10059000CB6F5A0ECC6F200ECD6F730ECE6F700ED8
:1005A000CF6F610ED06F630ED16F650ED26F200ECC
:1005B000D36F690ED46F6E0ED56F760ED66F610E47
:1005C000D76F640ED86F650ED96F720EDA6F730E27
:1005D000DB6F200EDC6FDD6FDE6F700EDF6F690E7C
:1005E000E06F630EE16F200EE26F650EE36F640E45
:1005F000E46F690EE56F740EE66F690EE76F6F0EBC
:10060000E86F6E0EE96F630EEA6F6C0EEB6F690EAA
:10061000EC6F630EED6F6B0EEE6F200EEF6F740ECE
:10062000F06F6F0EF16F200EF26F730EF36F740E9A
:10063000F46F610EF56F720EF66F740EF76FC5C42E
:10064000F9F4C4C4F8F4040EFB6FCE0EFA6F1C0E5E
:10065000FC6F00010DDFC7C4F9F4C6C4F8F4040E42
:100660000401FB6FEA0EFA6F0E0EFC6F000100DF53
:10067000CDC4F9F4CCC4F8F44EDFCBC4F9F4CAC449
:10068000F8F458DFC9C4F9F4C8C4F8F462DF71EFB4
:1006900003F09380000E81B0010E016E1200F9DFAD
:1006A0000401C59101B0C5810491C5A104810495DF
:1006B00004A103D004B301D00485049704B103D08E
:1006C00004A301D00487049304B104830001120041
:1006D000000E040104B5010E016E0001120082DD5E
:1006E00047D7D5DDDCDFF4DF015207E07BDD640EA8
:1006F0000401C86F00018DDC06D0640E0401C86FD0
:10070000000187DCEFD786EF0BF00401A26BA36B2F
:10071000020EA76FA86BA46BA56B500E9D6F320ED7
:100720009E6FA16B000188EF0BF0050E0401CC6FEA
:10073000CD6F010ECE6FCF6BD06F050ED16F190E3E
:10074000D26F010ED36FD46BD56F050ED66F2D0E01
:10075000D76F010ED86FD96BDA6F1E0EDB6F050EE7
:10076000DC6F010EDD6FDE6BDF6F1E0EE06F190EAA
:10077000E16F010EE26FE36BE46F1E0EE56F2D0E6D
:10078000E66F010EE76FE86BE96FEA6BEA51050867
:1007900032E3EA51050DF350036A7F0F016E040E38
:1007A000032201C0EBF403C0EAFFEA51050DF35048
:1007B000036ACC0FE16E040E0320E26E01C0E9FF74
:1007C000050E016EE6CFEEFF012EFCD7EA51050DB6
:1007D000F350EC6BEB6F7F0EEB25E96E040EEC2112
:1007E000EA6EECCFF9F4ED52EFCFF8F40001B1DE90
:1007F0000401EA2BCBD7000112000401FF510908C4
:10080000D8A03FD00501006B0051020839E3016B0D
:100810000151040833E30401FF51030DF3500501B6
:10082000046B036F036A00510325016E0451032218
:100830000150050FE96E040E0320EA6EEFCF00F0C1
:100840000151016E04E0D8900032012EFCD7005017
:10085000010B026F00510401FD250501036F0151D9
:100860000401FE250501046F03C509F50A6F02C5E1
:100870000BF5000157DD0501012BCAD7002BC4D7AA
:100880000401000112000401FE51016AFD5D03E252
:10089000FDC400F00CD0006A080EFF6FFD37003673
:1008A000FE51005CD8B0006E0136FF2FF7D7000173
:1008B00012000401F2516408D8A070D0F25164080B
:1008C00024E1F1C4FEF4F0C4FDF4010EFF6F000159
:1008D00094DF040E0401F025F36FF1C4F4F4F4C4C2
:1008E000FEF4F3C4FDF4FF6B000187DF080E040182
:1008F000F025F56FF1C4F6F4F6C4FEF4F5C4FDF48A
:10090000FF6B00017ADF040149D0F2C4FDF40A0E46
:10091000FE6F0001B8DF01C0F7F4F2C4FDF40A0E67
:100920000401FE6F0001AFDF00C0F8F40401F753CB
:100930000AE0F1C4FEF4F0C4FDF4F7C4FFF40001D2
:100940005CDF1DD00401F96BF951020817E3FA6B63
:10095000FA51040811E3F951F025FD6FFA51F12520
:10096000FE6FFDC409F5E8CF0AF505010B6B000128
:10097000D9DC0401FA2BECD7F92BE6D70001040EE1
:100980000401F025FB6FF1C4FCF4FCC4FEF4FBC4CD
:10099000FDF4F8C4FFF4000130DF0401000112008F
:1009A000700E0401CB6FCC6BCCC4F1F4CBC4F0F46B
:1009B000CAC4F2F400017DDF12000401C46BC4510B
:1009C000050822E3C451030DF350C66BC56FB20E88
:1009D000C525E96E040EC621EA6EEC6AED52EF6A97
:1009E000C451030DF350C66BC56F020EC525016ED1
:1009F000000EC621036E0150B20FE96E040E0320F3
:100A0000EA6EEF6AC42BDBD7000192EF0BF0040112
:100A1000C86BC85105083BE3C851030DF350CA6BBE
:100A2000C96F020EC925016E000ECA21036E015066
:100A3000B20FE96E040E0320EA6EEF5226E1C851B0
:100A4000030DF350CA6BC96FB20EC925E96E040ECF
:100A5000CA21EA6EC7C4ECFFED52C6C4EFFFC8510D
:100A6000030DF350CA6BC96F020EC925016E000E4B
:100A7000CA21036E0150B20FE96E040E0320EA6E24
:100A8000010EEF6EC8C401F004D0C82BC2D7FF0E10
:100A9000016E000112000401E06BDE51E05D17E21F
:100AA000E16BDF51E15D11E2E151DC25E26FE051E4
:100AB000DD25E36FE2C409F5E8CF0AF505010B6B0C
:100AC000000130DC0401E12BECD7E02BE6D700017C
:100AD0001200080E016EC250830B0110C26E0D0E83
:100AE000006E002EFED7C282C2B2FED7C4CF01F084
:100AF0008CEF05F0040E016EC250830B0110C26E24
:100B00000D0E006E002EFED7C282C2B2FED7C4CF39
:100B100001F08FEF05F0DDD701C0CBF4EBD701C0BA
:100B2000CCF40401CB5177080FE3C9C4E9FFCAC470
:100B3000EAFFEF50500808E2C9C4E9FFCAC4EAFF5F
:100B4000050EEF5CEF6E11D0CB5187080EE2C9C4E1
:100B5000E9FFCAC4EAFFEF50630807E3C9C4E9FF2D
:100B6000CAC4EAFF050EEF24EF6ECC51770813E3F9
:100B7000010EC925E96E000ECA21EA6EEF50310858
:100B80000AE3010EC925E96E000ECA21EA6E050EC0
:100B9000EF24EF6E14D0CC51870811E2010EC92565
:100BA000E96E000ECA21EA6EEF5209E0010EC92576
:100BB000E96E000ECA21EA6E050EEF5CEF6EC9C445
:100BC000E9FFCAC4EAFFEF504F0806E3C9C4E9FFD2
:100BD000CAC4EAFF500EEF6EC9C4E9FFCAC4EAFFF7
:100BE000EF50640806E2C9C4E9FFCAC4EAFF640E14
:100BF000EF6E010EC925E96E000ECA21EA6E010EE4
:100C0000C925E96E000ECA21EA6EEF50320808E2EB
:100C1000010EC925E96E000ECA21EA6E320EEF6E92
:100C2000000137DD0401CD9101B0CD810491CDA14A
:100C30000481049504A103D004B301D00485049772
:100C400004B103D004A301D00487049304B1048346
:100C5000000199EF06F0000E040104B1010E016ECF
:100C6000000134EF06F0F7D7015223E0020E040131
:100C7000CB25E96E000ECC21EA6EEF52D8B402D03B
:100C8000000117D0020ECB25E96E000ECC21EA6ED2
:100C9000010EEF6ECBC4E9FFCCC4EAFF060EC95DBE
:100CA000EF6E010ECB25E96E000ECC21EA6ECAC4B0
:100CB000EFFF0001A4EF06F0CAC4CCF4C9C4CBF422
:100CC000CCC4DDF4CBC4DCF4080E0401DE6FDF6FAE
:100CD0000001E1DE0401C9514F0802E3500EC96F63
:100CE000C951640802E2640EC96FCA51320802E2B7
:100CF000320ECA6FCAC4F9F4C9C4F8F400010BDC9F
:100D00000401C9C401F0CAC402F00001A9EF06F051
:100D10009EC4DDF49DC4DCF4080E0401DE6FDF6FB9
:100D20000001B9DE040E0401CA6F9D0EC96F0001F7
:100D3000F2D69EC4CAF49DC4C9F4040E0401CC6F5B
:100D40009F0ECB6F00018FD79EC4CAF49DC4C9F417
:100D5000B3D702C09EF401C09DF412000401CB532E
:100D600007E1C9C401F0CAC402F0CBC403F01CD02F
:100D7000CAC4CDF4C9C4CCF40C0EC95FCDC4DDF433
:100D8000CCC4DCF4080EDE6FDF6F000184DECAC461
:100D9000F9F4C9C4F8F49AEC02F0C9C401F0CAC469
:100DA00002F0CBC403F004010001DEEF06F0A1C4A1
:100DB000CBF4A0C4CAF49FC4C9F4D0D703C0A1F433
:100DC00002C0A0F401C09FF41200080E0401CF2558
:100DD000FF0FCC5D01E012E2080ECC25FF0FCF5DC6
:100DE00001E00CE2080ED025FF0FCD5D01E006E228
:100DF000080ECD25FF0FD05D03E002E3000E01D009
:100E0000010E016E000167EF07F00401CBC4E9FF9A
:100E1000CCC4EAFFEF5203E1CF51080803E2000E11
:100E2000016E22D0D06BCF51D05D17E2010ED025DC
:100E3000CB25016E000ECC21036ED051CD25E96E7D
:100E4000000ECE21EA6EEFCFD3F403C0EAFF01C05B
:100E5000E9FFD3C4EFFFD02BE6D7CBC4E9FFCCC466
:100E6000EAFF010EEF6E016E000193EF07F004013F
:100E7000C96BC9510508D8A08FD0C951050DF350D1
:100E8000036A7F0FE96E040E0320EA6EEE52EE5203
:100E9000EE52ECCFCFF4ED52EFCFCEF4ED52EFCFD8
:100EA000CDF4ED52EFCFCCF4ED52EFCFCFF4A1C49F
:100EB000CEF4A0C4CDF49FC4CCF4CCC4D0F4CDC443
:100EC000D1F4CEC4D2F4CFC4D3F400017ED7015202
:100ED00060E00401A153D8A402D000015AD0C95146
:100EE000050DF350CC6BCB6F040ECB25016E000EBD
:100EF000CC21036E01507F0FE96E040E0320EA6ED1
:100F0000EF52D8A402D0000144D0010ECA6F040EE3
:100F1000CC6FA90ECB6F040ECE6FCA0ECD6F010E33
:100F2000CF6F000172D70401A16BC951050DF350B9
:100F3000CC6BCB6F040ECB25016E000ECC21036E63
:100F400001507F0FE96E040E0320EA6EEF6AC9516B
:100F5000050DF350CC6BCB6F7F0ECB25E96E040EE5
:100F6000CC21EA6EECCFDDF4ED52EFCFDCF4080ECD
:100F7000DE6FDF6F00018FDDA0C4DDF49FC4DCF401
:100F8000080E0401DE6FDF6F000185DD040104D06F
:100F900000010401C92B6DD7A1530EE09F51050834
:100FA0000BE3A16BA0C4DDF49FC4DCF4080EDE6F7C
:100FB000DF6F000170DD0401000112000401C9535C
:100FC00002E1CA5305E0C9C4E9FFCAC4EAFFEF2A37
:100FD0000001FEEF07F047EC01F00401A82BA8C4C4
:100FE000FDF4A7C4FEF400014EDC005207E1040E3C
:100FF0000401CA6FA60EC96F0001E0D712000401F8
:10100000CC5305E1CD5303E1000E016E10D0CCC4EA
:10101000E9FFCDC4EAFFEF5208E0CCC4E9FFCDC43C
:10102000EAFFEF06010E016E02D0000E016E000114
:101030009BEF08F0D6C4DBF4D5C4DAF40401D8532E
:101040001EE00D0ED527D82D02D0010E01D0FF0EC7
:10105000D76FD86BDBC4DDF4DAC4DCF4080EDE6FC6
:10106000DF6F000118DDD6C4F9F4D5C4F8F4A9EC9B
:1010700002F0D50E016E040E026E26D00401D75187
:10108000050DF350D627D651020805E3020ED66FA0
:10109000010ED86F06D0D651310803E2320ED66F5A
:1010A000D869DBC4DDF4DAC4DCF4080EDE6FDF6F70
:1010B0000001F1DCD6C4F9F4D5C4F8F4A9EC02F0CF
:1010C000D50E016E040E026EDDEF08F00401C96B4F
:1010D000CA6BCA51050816E3CA51050DF350CD6B12
:1010E000CC6F040ECC25016E000ECD21036E015095
:1010F0007F0FE96E040E0320EA6EEF5201E0C92B68
:10110000CA2BE7D7C9530CE1A4530AE1A751010840
:1011100001E2A707000195EC03F0010E0401A46FA2
:10112000A45303E0C95301E0A46B040ECD6FA60ED7
:10113000CC6F000164D7015264E00401CB6BCB514A
:1011400005085EE3CB51050DF350CD6BCC6F040E5B
:10115000CC25016E000ECD21036E01507F0FE96E8C
:10116000040E0320EA6EEF5249E0CB51050DF35017
:10117000036A7F0F016E040E032201C0CCF403C08A
:10118000CDF4CB51050DF350036A7F0FE96E040EC9
:101190000320EA6EEE52EE52EE52ECCFD9F4ED524D
:1011A000EFCFD8F4ED52EFCFD7F4ED52EFCFD6F426
:1011B000ED52EFCFD5F400013DD702C003F001C0DE
:1011C000E1FF02C0E2FFCDC4EAFFCCC4E9FF050E97
:1011D000016EE6CFEEFF012EFCD70401CB51050DC9
:1011E000F350CD6BCC6F7F0ECC25E96E040ECD2174
:1011F000EA6EEF504A0802E2010EA56FCB2B9FD793
:10120000000112000401CAC4E9FFCBC4EAFFEF5297
:1012100003E0CE51080803E2000E016E22D0CF6B2E
:10122000CE51CF5D17E2CF51CC25016E000ECD21FE
:10123000036E010ECF25CA25E96E000ECB21EA6EA2
:10124000EFCFD2F403C0EAFF01C0E9FFD2C4EFFF41
:10125000CF2BE6D7CAC4E9FFCBC4EAFFEF6A010E81
:10126000016E000151EF09F0700E0401CA6FCB6BE3
:10127000CBC4DDF4CAC4DCF40B0EDE6F050EDF6FE9
:10128000000109DC5FEF09F0040E0401CB6FA90E29
:10129000CA6F040ECD6FC90ECC6F010ECE6F000168
:1012A000B1D7015206E00401C92D01D0A22B0001E3
:1012B000EBD70401A351A25D09E00001D5D7A2C478
:1012C000CAF4D0EC04F0A2C4A3F40401000112009B
:1012D0000401C46BC45105083EE3C451030DF3502F
:1012E000C66BC56F020EC525016E000EC621036ECA
:1012F0000150B20FE96E040E0320EA6EEF5229E0AE
:10130000C451030DF350C66BC56FB20EC525E96E0F
:10131000040EC621EA6EECCFC8F4ED52EFCFC7F44D
:10132000C75302E1C85315E0C451030DF350C66B17
:10133000C56FB20EC525016E040EC621036E01C035
:10134000C7F4C86FEA6E01C0E9FF000102EC00F0CB
:101350000401C42BBFD70001E5EF0BF0C69CC58686
:10136000C5B6FED700B0C59A00A0C58AC588C5B865
:10137000FED7C9CF01F0DBEF09F0C580C5B0FED7BD
:10138000A00E0401CD6F00011EEC00F00401CD6B36
:1013900000011EEC00F00401CD6B00011EEC00F01A
:1013A000C582C5B2FED7A10E0401CD6F00011EECAF
:1013B00000F0006AD3D701C0C6F4C584C5B4FED717
:1013C0000401C6C401F00001E7EF09F0D6D701C05F
:1013D000C5F40401C5C401F00001B7EF0AF0C580EF
:1013E000C5B0FED7A00E0401CD6F00011EEC00F0C9
:1013F0000401CD6B00011EEC00F00401CD6B000177
:101400001EEC00F0C7C4CDF41EEC00F0C584C5B4DA
:10141000FED7050E0401C86F000109EC00F019EFBA
:101420000AF00401C551C65D05E2C5C4C7F4000158
:10143000D6D704010001BEEF0AF02E0E0401C76FDB
:101440000A0EC86FC96F140ECA6F0A0ECB6F1A0E40
:10145000CC6F6E0ECD6F140ECE6F6E0ECF6F1A0E58
:10146000D06F200ED16F360ED26F670ED36F610E24
:10147000D46F6D0ED56F650ED66F200ED76F6F0EC1
:10148000D86F760ED96F650EDA6F720EDB6F680E4D
:10149000DC6F730EDD6FDE6FDF6F630EE06F6C0E5F
:1014A000E16F690EE26F630EE36F6B0EE46F200E67
:1014B000E56F740EE66F6F0EE76F200EE86F720E29
:1014C000E96F650EEA6F730EEB6F740EEC6F610ED1
:1014D000ED6F720EEE6F740EEF6FC8C4F9F4C7C4EF
:1014E000F8F4040EFB6FD30EFA6F090EFC6F0001C7
:1014F00038EC02F0CAC4F9F4C9C4F8F4040E0401CB
:10150000FB6FDC0EFA6F020EFC6F000138EC02F08C
:10151000CEC4F9F4CDC4F8F4040E0401FB6FDE0E62
:10152000FA6F020EFC6F000138EC02F0D2C4F9F43D
:10153000D1C4F8F4040E0401FB6FE00EFA6F100E34
:10154000FC6F000138EC02F0CCC4F1F4CBC4F0F431
:10155000C6C4F2F459EC04F0D0C4F1F4CFC4F0F4F2
:10156000C5C4F2F459EC04F0C5EF0AF02FD701C05E
:10157000C4F4A2C4C5F4C4C4C6F453D7C9EC00F083
:10158000A2C4C5F4C4C4C6F458D747EC01F04FEC6C
:1015900003F068EC03F0015209E0C9EC00F0640EBE
:1015A0000401C86F000109EC00F007D0640E0401CB
:1015B000C86F000109EC00F0EAD7EFEF0BF0F86A12
:1015C000D09E700ED36E9B9C9B9E94869488CB90ED
:1015D000CB92CB96270EC86E280EC66EC78EC79CC0
:1015E0000401049104930495049759D07A04051FCB
:1015F000111F001F001D151715151F07041F1715B4
:101600001D1F151D01011F1F151F17151F61656780
:10161000686D6F7273747670636C696B6E641E05AF
:101620001F1F15150E111D1F041F1F061F0E110E63
:101630001F051A121509011F010718071F05020EC1
:1016400011111F1010001D001F041B1F011E1F1170
:101650000E708C828181828C7018244281425A24BF
:10166000C30000007E7E00000002049D503205C0D1
:10167000000304A20000000204A400000104A5006D
:101680000204A706000204A706001244B200054F98
:101690003800030F77000000010FD3700000000E28
:1016A000F86E150EF76EEC0EF66E0900F550006E32
:1016B000000A13E00900F550016EE8BE05D03F0BAB
:1016C000EA6E0900F5CFE9FF01BC090001AC090091
:1016D000F5CFEEFF004EE9D7F9D7F86A000149EFE0
:1016E00001F066EF01F0040E0401C56FA60EC46F91
:1016F000C66B000169EF01F0040E0401C56FA90E6D
:10170000C46F000177EF01F06FEF03F085EF03F096
:10171000C9EC00F095EC03F0A2C4CAF4D0EC04F0DC
:10172000DDEF04F00D0E036EAE0E0401C46F03C0B6
:10173000C5F403C0C7F4C66F000107EC05F00E0E38
:10174000036E6E0E0401C46F03C0C5F403C0C7F47A
:10175000C66F000107EC05F00D0E036E100E0401BC
:10176000C46F03C0C5F403C0C7F4C66F000107EC23
:1017700005F0100E036ECC0E0401C46F03C0C5F457
:1017800003C0C7F4C66F000107EC05F0120E036E2C
:10179000880E0401C46F03C0C5F403C0C7F4C66F4C
:1017A000000107EC05F00F0E036ED60E0401C46FA6
:1017B00003C0C5F403C0C7F4C66F000107EC05F011
:1017C0000401A5530AE1000183D5640E0401C86F2A
:1017D000000109EC00F0F4D704010001C7D694D74A
:0217E000030004
:020000040030CA
:0E00000000E81E3C00BF81000FC00FE00F4063
:00000001FF
;PIC18F46K22
;CRC=1800  CREATED="12-Aug-25 16:28"
