:1000000098EF00F05374617274696E672041444345
:1000100020746573742E2E2E0D0A0000583D253372
:10002000752020593D2533750D0A00000900F55251
:100030000DE0F6CF08F0F7CF09F0F5509EA8FED7F7
:10004000AD6E08C0F6FF09C0F7FFF0D7DBEF00F098
:100050000B50016A0A5C03E20AC000F00CD0006A8F
:10006000080E0C6E0A3600360B50005CD8B0006EDD
:1000700001360C2EF7D71200015008C00AF0640EAA
:100080000B6EE6DF00C008F00150300E07E109A258
:100090000DD009B60BD009B8200E03D009960998E7
:1000A0000980012601509EA8FED7AD6E08C00AF057
:1000B0000A0E0B6ECDDF00C008F00150300E06E1D5
:1000C00009B609D009A007D009B8200E01260150B1
:1000D0009EA8FED7AD6E300E082608509EA8FED70B
:1000E000AD6E12000900F6CF09F0F7CF0AF0F55017
:1000F0009EA8FED7AD6E09C0F6FF0AC0F7FF082E16
:10010000F1D70FEF01F0EA6A080EE96EEF500EE04A
:10011000140E016E006A002EFED7012EFBD7BF0E13
:10012000006E002EFED700D0EF2EF2D71FEF01F0A9
:10013000F86AD09E360E006E100E016E020EE96E49
:10014000000EEA6EEE6A002EFDD7012EFBD7700E70
:10015000D36E9B8C9B9EB8868A0EAF6E000EB06EDF
:10016000A60EAC6E900EAB6E056A046A0F01386B7A
:10017000396B3A6B3B6B3C6B776A786A796AC15032
:10018000F00BC16E060E386F000E3C6F396F3A6F80
:100190003B6FC050C00B0609C06EC09EC280040EEB
:1001A000016EC250830B0110C26E040EF66E000E7B
:1001B000F76E00013BD7040E016EC250830B011095
:1001C000C26E6A0E006E002EFED70000C282C2B25E
:1001D000FED7C4CF06F0080E016EC250830B01108B
:1001E000C26E6A0E006E002EFED70000C282C2B23E
:1001F000FED7C4CF07F0580E9EA8FED7AD6E3D0EB9
:100200009EA8FED7AD6E06C008F0130E096E34DF4F
:10021000210EF66E000EF76E040E086E63D707C04F
:1002200008F0130E096E28DF0D0E9EA8FED7AD6EE6
:100230000A0E9EA8FED7AD6E640E086E64D7BBD7BB
:020240000300B9
:020000040030CA
:0E00000000E8003C00AF85000FC00FE00F408D
:00000001FF
;PIC18F46K22
;CRC=D8D3  CREATED="27-Aug-25 20:05"
